{"project/contracts/IPTokenization.sol":{"IPTokenization":{"abi":[{"inputs":[{"internalType":"string","name":"_ipTitle","type":"string"},{"internalType":"string","name":"_ipDescription","type":"string"},{"internalType":"address","name":"_ipCreator","type":"address"},{"internalType":"uint256","name":"_initialLiquidityUSD","type":"uint256"},{"internalType":"uint256","name":"_totalTokens","type":"uint256"}],"stateMutability":"nonpayable","type":"constructor"},{"anonymous":false,"inputs":[{"indexed":true,"internalType":"address","name":"owner","type":"address"},{"indexed":true,"internalType":"address","name":"spender","type":"address"},{"indexed":false,"internalType":"uint256","name":"value","type":"uint256"}],"name":"Approval","type":"event"},{"anonymous":false,"inputs":[{"indexed":false,"internalType":"uint256","name":"tokenAmount","type":"uint256"},{"indexed":false,"internalType":"uint256","name":"usdDistributed","type":"uint256"}],"name":"EmergencyBurn","type":"event"},{"anonymous":false,"inputs":[{"indexed":false,"internalType":"uint256","name":"usdAmount","type":"uint256"},{"indexed":false,"internalType":"uint256","name":"tokenAmount","type":"uint256"}],"name":"LiquidityAdded","type":"event"},{"anonymous":false,"inputs":[{"indexed":true,"internalType":"address","name":"previousOwner","type":"address"},{"indexed":true,"internalType":"address","name":"newOwner","type":"address"}],"name":"OwnershipTransferred","type":"event"},{"anonymous":false,"inputs":[{"indexed":false,"internalType":"enum IPTokenization.IPStatus","name":"newStatus","type":"uint8"},{"indexed":false,"internalType":"uint256","name":"timestamp","type":"uint256"}],"name":"StatusChanged","type":"event"},{"anonymous":false,"inputs":[{"indexed":true,"internalType":"address","name":"from","type":"address"},{"indexed":true,"internalType":"address","name":"to","type":"address"},{"indexed":false,"internalType":"uint256","name":"value","type":"uint256"}],"name":"Transfer","type":"event"},{"inputs":[],"name":"LAUNCH_DURATION","outputs":[{"internalType":"uint256","name":"","type":"uint256"}],"stateMutability":"view","type":"function"},{"inputs":[],"name":"MATURE_DURATION","outputs":[{"internalType":"uint256","name":"","type":"uint256"}],"stateMutability":"view","type":"function"},{"inputs":[{"internalType":"uint256","name":"usdAmount","type":"uint256"}],"name":"addLiquidity","outputs":[],"stateMutability":"nonpayable","type":"function"},{"inputs":[{"internalType":"address","name":"owner","type":"address"},{"internalType":"address","name":"spender","type":"address"}],"name":"allowance","outputs":[{"internalType":"uint256","name":"","type":"uint256"}],"stateMutability":"view","type":"function"},{"inputs":[{"internalType":"address","name":"spender","type":"address"},{"internalType":"uint256","name":"amount","type":"uint256"}],"name":"approve","outputs":[{"internalType":"bool","name":"","type":"bool"}],"stateMutability":"nonpayable","type":"function"},{"inputs":[{"internalType":"address","name":"account","type":"address"}],"name":"balanceOf","outputs":[{"internalType":"uint256","name":"","type":"uint256"}],"stateMutability":"view","type":"function"},{"inputs":[{"internalType":"uint256","name":"amount","type":"uint256"}],"name":"burn","outputs":[],"stateMutability":"nonpayable","type":"function"},{"inputs":[{"internalType":"address","name":"account","type":"address"},{"internalType":"uint256","name":"amount","type":"uint256"}],"name":"burnFrom","outputs":[],"stateMutability":"nonpayable","type":"function"},{"inputs":[],"name":"currentStatus","outputs":[{"internalType":"enum IPTokenization.IPStatus","name":"","type":"uint8"}],"stateMutability":"view","type":"function"},{"inputs":[],"name":"decimals","outputs":[{"internalType":"uint8","name":"","type":"uint8"}],"stateMutability":"view","type":"function"},{"inputs":[{"internalType":"address","name":"spender","type":"address"},{"internalType":"uint256","name":"subtractedValue","type":"uint256"}],"name":"decreaseAllowance","outputs":[{"internalType":"bool","name":"","type":"bool"}],"stateMutability":"nonpayable","type":"function"},{"inputs":[{"internalType":"uint256","name":"tokensToBurn","type":"uint256"}],"name":"emergencyBurn","outputs":[],"stateMutability":"nonpayable","type":"function"},{"inputs":[],"name":"getPricePerToken","outputs":[{"internalType":"uint256","name":"","type":"uint256"}],"stateMutability":"view","type":"function"},{"inputs":[{"internalType":"address","name":"spender","type":"address"},{"internalType":"uint256","name":"addedValue","type":"uint256"}],"name":"increaseAllowance","outputs":[{"internalType":"bool","name":"","type":"bool"}],"stateMutability":"nonpayable","type":"function"},{"inputs":[],"name":"ipCreator","outputs":[{"internalType":"address","name":"","type":"address"}],"stateMutability":"view","type":"function"},{"inputs":[],"name":"ipDescription","outputs":[{"internalType":"string","name":"","type":"string"}],"stateMutability":"view","type":"function"},{"inputs":[],"name":"ipTitle","outputs":[{"internalType":"string","name":"","type":"string"}],"stateMutability":"view","type":"function"},{"inputs":[],"name":"launchTimestamp","outputs":[{"internalType":"uint256","name":"","type":"uint256"}],"stateMutability":"view","type":"function"},{"inputs":[],"name":"liquidityPoolBalance","outputs":[{"internalType":"uint256","name":"","type":"uint256"}],"stateMutability":"view","type":"function"},{"inputs":[],"name":"name","outputs":[{"internalType":"string","name":"","type":"string"}],"stateMutability":"view","type":"function"},{"inputs":[],"name":"owner","outputs":[{"internalType":"address","name":"","type":"address"}],"stateMutability":"view","type":"function"},{"inputs":[],"name":"renounceOwnership","outputs":[],"stateMutability":"nonpayable","type":"function"},{"inputs":[],"name":"symbol","outputs":[{"internalType":"string","name":"","type":"string"}],"stateMutability":"view","type":"function"},{"inputs":[],"name":"totalSupply","outputs":[{"internalType":"uint256","name":"","type":"uint256"}],"stateMutability":"view","type":"function"},{"inputs":[],"name":"totalTokensMinted","outputs":[{"internalType":"uint256","name":"","type":"uint256"}],"stateMutability":"view","type":"function"},{"inputs":[{"internalType":"address","name":"to","type":"address"},{"internalType":"uint256","name":"amount","type":"uint256"}],"name":"transfer","outputs":[{"internalType":"bool","name":"","type":"bool"}],"stateMutability":"nonpayable","type":"function"},{"inputs":[{"internalType":"address","name":"from","type":"address"},{"internalType":"address","name":"to","type":"address"},{"internalType":"uint256","name":"amount","type":"uint256"}],"name":"transferFrom","outputs":[{"internalType":"bool","name":"","type":"bool"}],"stateMutability":"nonpayable","type":"function"},{"inputs":[{"internalType":"address","name":"newOwner","type":"address"}],"name":"transferOwnership","outputs":[],"stateMutability":"nonpayable","type":"function"},{"inputs":[],"name":"updateStatus","outputs":[],"stateMutability":"nonpayable","type":"function"}],"evm":{"bytecode":{"linkReferences":{},"object":"608060405234801562000010575f80fd5b506040516200161b3803806200161b833981016040819052620000339162000305565b604080518082019091526002815261049560f41b6020820152859060036200005c838262000427565b5060046200006b828262000427565b50505062000088620000826200012960201b60201c565b6200012d565b600662000096868262000427565b506007620000a5858262000427565b50600880546001600160a01b0319166001600160a01b03851617905542600955600a805460ff19169055600c819055600b829055620000e530826200017e565b60408051838152602081018390527f38f8a0c92f4c5b0b6877f878cb4c0c8d348a47b76d716c8e78f425043df9515b910160405180910390a1505050505062000515565b3390565b600580546001600160a01b038381166001600160a01b0319831681179093556040519116919082907f8be0079c531659141344cd1fd0a4f28419497f9722a3daafe3b4186f6b6457e0905f90a35050565b6001600160a01b038216620001d95760405162461bcd60e51b815260206004820152601f60248201527f45524332303a206d696e7420746f20746865207a65726f206164647265737300604482015260640160405180910390fd5b8060025f828254620001ec9190620004ef565b90915550506001600160a01b0382165f81815260208181526040808320805486019055518481527fddf252ad1be2c89b69c2b068fc378daa952ba7f163c4a11628f55a4df523b3ef910160405180910390a35050565b505050565b634e487b7160e01b5f52604160045260245ffd5b5f82601f8301126200026b575f80fd5b81516001600160401b038082111562000288576200028862000247565b604051601f8301601f19908116603f01168101908282118183101715620002b357620002b362000247565b81604052838152602092508683858801011115620002cf575f80fd5b5f91505b83821015620002f25785820183015181830184015290820190620002d3565b5f93810190920192909252949350505050565b5f805f805f60a086880312156200031a575f80fd5b85516001600160401b038082111562000331575f80fd5b6200033f89838a016200025b565b9650602088015191508082111562000355575f80fd5b5062000364888289016200025b565b604088015190955090506001600160a01b038116811462000383575f80fd5b6060870151608090970151959894975095949392505050565b600181811c90821680620003b157607f821691505b602082108103620003d057634e487b7160e01b5f52602260045260245ffd5b50919050565b601f82111562000242575f81815260208120601f850160051c81016020861015620003fe5750805b601f850160051c820191505b818110156200041f578281556001016200040a565b505050505050565b81516001600160401b0381111562000443576200044362000247565b6200045b816200045484546200039c565b84620003d6565b602080601f83116001811462000491575f8415620004795750858301515b5f19600386901b1c1916600185901b1785556200041f565b5f85815260208120601f198616915b82811015620004c157888601518255948401946001909101908401620004a0565b5085821015620004df57878501515f19600388901b60f8161c191681555b5050505050600190811b01905550565b808201808211156200050f57634e487b7160e01b5f52601160045260245ffd5b92915050565b6110f880620005235f395ff3fe608060405234801561000f575f80fd5b50600436106101c6575f3560e01c80637866abe0116100fe578063a9059cbb1161009e578063ec23770d1161006e578063ec23770d1461037b578063ef8a92351461038e578063f11600b8146103a8578063f2fde38b146103b2575f80fd5b8063a9059cbb1461033a578063ca1e97381461034d578063dd62ed3e14610355578063dfff856814610368575f80fd5b806385f23fa7116100d957806385f23fa7146102f05780638da5cb5b146102fa57806395d89b411461031f578063a457c2d714610327575f80fd5b80637866abe0146102cc57806379cc6790146102d45780637d549e99146102e7575f80fd5b806342966c681161016957806365cf7c9b1161014457806365cf7c9b1461028a5780636c3c7fe81461029357806370a082311461029c578063715018a6146102c4575f80fd5b806342966c681461025a57806351c6590a1461026f5780635f60f48514610282575f80fd5b8063181c6842116101a4578063181c68421461021d57806323b872dd14610225578063313ce567146102385780633950935114610247575f80fd5b806306fdde03146101ca578063095ea7b3146101e857806318160ddd1461020b575b5f80fd5b6101d26103c5565b6040516101df9190610e8e565b60405180910390f35b6101fb6101f6366004610ef4565b610455565b60405190151581526020016101df565b6002545b6040519081526020016101df565b6101d261046e565b6101fb610233366004610f1c565b6104fa565b604051601281526020016101df565b6101fb610255366004610ef4565b61051d565b61026d610268366004610f55565b61053e565b005b61026d61027d366004610f55565b61054b565b61026d6105a4565b61020f60095481565b61020f600b5481565b61020f6102aa366004610f6c565b6001600160a01b03165f9081526020819052604090205490565b61026d6106f0565b6101d2610703565b61026d6102e2366004610ef4565b610710565b61020f600c5481565b61020f6212750081565b6005546001600160a01b03165b6040516001600160a01b0390911681526020016101df565b6101d2610725565b6101fb610335366004610ef4565b610734565b6101fb610348366004610ef4565b6107b3565b61020f6107c0565b61020f610363366004610f8c565b6107f6565b61026d610376366004610f55565b610820565b600854610307906001600160a01b031681565b600a5461039b9060ff1681565b6040516101df9190610ff1565b61020f62278d0081565b61026d6103c0366004610f6c565b610907565b6060600380546103d490610fff565b80601f016020809104026020016040519081016040528092919081815260200182805461040090610fff565b801561044b5780601f106104225761010080835404028352916020019161044b565b820191905f5260205f20905b81548152906001019060200180831161042e57829003601f168201915b5050505050905090565b5f3361046281858561097d565b60019150505b92915050565b6006805461047b90610fff565b80601f01602080910402602001604051908101604052809291908181526020018280546104a790610fff565b80156104f25780601f106104c9576101008083540402835291602001916104f2565b820191905f5260205f20905b8154815290600101906020018083116104d557829003601f168201915b505050505081565b5f33610507858285610aa1565b610512858585610b19565b506001949350505050565b5f3361046281858561052f83836107f6565b610539919061104b565b61097d565b6105483382610cbb565b50565b610553610de3565b80600b5f828254610564919061104b565b9091555050604080518281525f60208201527f38f8a0c92f4c5b0b6877f878cb4c0c8d348a47b76d716c8e78f425043df9515b910160405180910390a150565b5f600954426105b3919061105e565b600a5490915060ff165f8160038111156105cf576105cf610fbd565b1480156105df5750620151808210155b156105ec57506001610660565b6001600a5460ff16600381111561060557610605610fbd565b1480156106155750621275008210155b1561062257506002610660565b6002600a5460ff16600381111561063b5761063b610fbd565b148015610657575061065362278d006212750061104b565b8210155b15610660575060035b600a5460ff16600381111561067757610677610fbd565b81600381111561068957610689610fbd565b146106ec57600a805482919060ff191660018360038111156106ad576106ad610fbd565b02179055507f40a180796b90921dd8508eb434c78206ca5c737a0d584582edf399bc9711d9e981426040516106e3929190611071565b60405180910390a15b5050565b6106f8610de3565b6107015f610e3d565b565b6007805461047b90610fff565b61071b823383610aa1565b6106ec8282610cbb565b6060600480546103d490610fff565b5f338161074182866107f6565b9050838110156107a65760405162461bcd60e51b815260206004820152602560248201527f45524332303a2064656372656173656420616c6c6f77616e63652062656c6f77604482015264207a65726f60d81b60648201526084015b60405180910390fd5b610512828686840361097d565b5f33610462818585610b19565b5f600c545f036107cf57505f90565b600c54600b546107e790670de0b6b3a764000061108c565b6107f191906110a3565b905090565b6001600160a01b039182165f90815260016020908152604080832093909416825291909152205490565b610828610de3565b5f811180156108395750600c548111155b61087b5760405162461bcd60e51b8152602060048201526013602482015272125b9d985b1a5908189d5c9b88185b5bdd5b9d606a1b604482015260640161079d565b5f600c5482600b5461088d919061108c565b61089791906110a3565b90506108a33083610cbb565b81600c5f8282546108b4919061105e565b9250508190555080600b5f8282546108cc919061105e565b909155505060408051838152602081018390527f1b18dbc3b99b010a86877cb392ac10eefd175155aec08aa351daedc87f15415391016106e3565b61090f610de3565b6001600160a01b0381166109745760405162461bcd60e51b815260206004820152602660248201527f4f776e61626c653a206e6577206f776e657220697320746865207a65726f206160448201526564647265737360d01b606482015260840161079d565b61054881610e3d565b6001600160a01b0383166109df5760405162461bcd60e51b8152602060048201526024808201527f45524332303a20617070726f76652066726f6d20746865207a65726f206164646044820152637265737360e01b606482015260840161079d565b6001600160a01b038216610a405760405162461bcd60e51b815260206004820152602260248201527f45524332303a20617070726f766520746f20746865207a65726f206164647265604482015261737360f01b606482015260840161079d565b6001600160a01b038381165f8181526001602090815260408083209487168084529482529182902085905590518481527f8c5be1e5ebec7d5bd14f71427d1e84f3dd0314c0f7b2291e5b200ac8c7c3b92591015b60405180910390a3505050565b5f610aac84846107f6565b90505f198114610b135781811015610b065760405162461bcd60e51b815260206004820152601d60248201527f45524332303a20696e73756666696369656e7420616c6c6f77616e6365000000604482015260640161079d565b610b13848484840361097d565b50505050565b6001600160a01b038316610b7d5760405162461bcd60e51b815260206004820152602560248201527f45524332303a207472616e736665722066726f6d20746865207a65726f206164604482015264647265737360d81b606482015260840161079d565b6001600160a01b038216610bdf5760405162461bcd60e51b815260206004820152602360248201527f45524332303a207472616e7366657220746f20746865207a65726f206164647260448201526265737360e81b606482015260840161079d565b6001600160a01b0383165f9081526020819052604090205481811015610c565760405162461bcd60e51b815260206004820152602660248201527f45524332303a207472616e7366657220616d6f756e7420657863656564732062604482015265616c616e636560d01b606482015260840161079d565b6001600160a01b038481165f81815260208181526040808320878703905593871680835291849020805487019055925185815290927fddf252ad1be2c89b69c2b068fc378daa952ba7f163c4a11628f55a4df523b3ef910160405180910390a3610b13565b6001600160a01b038216610d1b5760405162461bcd60e51b815260206004820152602160248201527f45524332303a206275726e2066726f6d20746865207a65726f206164647265736044820152607360f81b606482015260840161079d565b6001600160a01b0382165f9081526020819052604090205481811015610d8e5760405162461bcd60e51b815260206004820152602260248201527f45524332303a206275726e20616d6f756e7420657863656564732062616c616e604482015261636560f01b606482015260840161079d565b6001600160a01b0383165f818152602081815260408083208686039055600280548790039055518581529192917fddf252ad1be2c89b69c2b068fc378daa952ba7f163c4a11628f55a4df523b3ef9101610a94565b6005546001600160a01b031633146107015760405162461bcd60e51b815260206004820181905260248201527f4f776e61626c653a2063616c6c6572206973206e6f7420746865206f776e6572604482015260640161079d565b600580546001600160a01b038381166001600160a01b0319831681179093556040519116919082907f8be0079c531659141344cd1fd0a4f28419497f9722a3daafe3b4186f6b6457e0905f90a35050565b5f6020808352835180828501525f5b81811015610eb957858101830151858201604001528201610e9d565b505f604082860101526040601f19601f8301168501019250505092915050565b80356001600160a01b0381168114610eef575f80fd5b919050565b5f8060408385031215610f05575f80fd5b610f0e83610ed9565b946020939093013593505050565b5f805f60608486031215610f2e575f80fd5b610f3784610ed9565b9250610f4560208501610ed9565b9150604084013590509250925092565b5f60208284031215610f65575f80fd5b5035919050565b5f60208284031215610f7c575f80fd5b610f8582610ed9565b9392505050565b5f8060408385031215610f9d575f80fd5b610fa683610ed9565b9150610fb460208401610ed9565b90509250929050565b634e487b7160e01b5f52602160045260245ffd5b60048110610fed57634e487b7160e01b5f52602160045260245ffd5b9052565b602081016104688284610fd1565b600181811c9082168061101357607f821691505b60208210810361103157634e487b7160e01b5f52602260045260245ffd5b50919050565b634e487b7160e01b5f52601160045260245ffd5b8082018082111561046857610468611037565b8181038181111561046857610468611037565b6040810161107f8285610fd1565b8260208301529392505050565b808202811582820484141761046857610468611037565b5f826110bd57634e487b7160e01b5f52601260045260245ffd5b50049056fea26469706673582212204b4e4df1dce47f64f50298df3b6eb9ebfe97d185177d0e5a8297dc36117152b564736f6c63430008140033","opcodes":"PUSH1 0x80 PUSH1 0x40 MSTORE CALLVALUE DUP1 ISZERO PUSH3 0x10 JUMPI PUSH0 DUP1 REVERT JUMPDEST POP PUSH1 0x40 MLOAD PUSH3 0x161B CODESIZE SUB DUP1 PUSH3 0x161B DUP4 CODECOPY DUP2 ADD PUSH1 0x40 DUP2 SWAP1 MSTORE PUSH3 0x33 SWAP2 PUSH3 0x305 JUMP JUMPDEST PUSH1 0x40 DUP1 MLOAD DUP1 DUP3 ADD SWAP1 SWAP2 MSTORE PUSH1 0x2 DUP2 MSTORE PUSH2 0x495 PUSH1 0xF4 SHL PUSH1 0x20 DUP3 ADD MSTORE DUP6 SWAP1 PUSH1 0x3 PUSH3 0x5C DUP4 DUP3 PUSH3 0x427 JUMP JUMPDEST POP PUSH1 0x4 PUSH3 0x6B DUP3 DUP3 PUSH3 0x427 JUMP JUMPDEST POP POP POP PUSH3 0x88 PUSH3 0x82 PUSH3 0x129 PUSH1 0x20 SHL PUSH1 0x20 SHR JUMP JUMPDEST PUSH3 0x12D JUMP JUMPDEST PUSH1 0x6 PUSH3 0x96 DUP7 DUP3 PUSH3 0x427 JUMP JUMPDEST POP PUSH1 0x7 PUSH3 0xA5 DUP6 DUP3 PUSH3 0x427 JUMP JUMPDEST POP PUSH1 0x8 DUP1 SLOAD PUSH1 0x1 PUSH1 0x1 PUSH1 0xA0 SHL SUB NOT AND PUSH1 0x1 PUSH1 0x1 PUSH1 0xA0 SHL SUB DUP6 AND OR SWAP1 SSTORE TIMESTAMP PUSH1 0x9 SSTORE PUSH1 0xA DUP1 SLOAD PUSH1 0xFF NOT AND SWAP1 SSTORE PUSH1 0xC DUP2 SWAP1 SSTORE PUSH1 0xB DUP3 SWAP1 SSTORE PUSH3 0xE5 ADDRESS DUP3 PUSH3 0x17E JUMP JUMPDEST PUSH1 0x40 DUP1 MLOAD DUP4 DUP2 MSTORE PUSH1 0x20 DUP2 ADD DUP4 SWAP1 MSTORE PUSH32 0x38F8A0C92F4C5B0B6877F878CB4C0C8D348A47B76D716C8E78F425043DF9515B SWAP2 ADD PUSH1 0x40 MLOAD DUP1 SWAP2 SUB SWAP1 LOG1 POP POP POP POP POP PUSH3 0x515 JUMP JUMPDEST CALLER SWAP1 JUMP JUMPDEST PUSH1 0x5 DUP1 SLOAD PUSH1 0x1 PUSH1 0x1 PUSH1 0xA0 SHL SUB DUP4 DUP2 AND PUSH1 0x1 PUSH1 0x1 PUSH1 0xA0 SHL SUB NOT DUP4 AND DUP2 OR SWAP1 SWAP4 SSTORE PUSH1 0x40 MLOAD SWAP2 AND SWAP2 SWAP1 DUP3 SWAP1 PUSH32 0x8BE0079C531659141344CD1FD0A4F28419497F9722A3DAAFE3B4186F6B6457E0 SWAP1 PUSH0 SWAP1 LOG3 POP POP JUMP JUMPDEST PUSH1 0x1 PUSH1 0x1 PUSH1 0xA0 SHL SUB DUP3 AND PUSH3 0x1D9 JUMPI PUSH1 0x40 MLOAD PUSH3 0x461BCD PUSH1 0xE5 SHL DUP2 MSTORE PUSH1 0x20 PUSH1 0x4 DUP3 ADD MSTORE PUSH1 0x1F PUSH1 0x24 DUP3 ADD MSTORE PUSH32 0x45524332303A206D696E7420746F20746865207A65726F206164647265737300 PUSH1 0x44 DUP3 ADD MSTORE PUSH1 0x64 ADD PUSH1 0x40 MLOAD DUP1 SWAP2 SUB SWAP1 REVERT JUMPDEST DUP1 PUSH1 0x2 PUSH0 DUP3 DUP3 SLOAD PUSH3 0x1EC SWAP2 SWAP1 PUSH3 0x4EF JUMP JUMPDEST SWAP1 SWAP2 SSTORE POP POP PUSH1 0x1 PUSH1 0x1 PUSH1 0xA0 SHL SUB DUP3 AND PUSH0 DUP2 DUP2 MSTORE PUSH1 0x20 DUP2 DUP2 MSTORE PUSH1 0x40 DUP1 DUP4 KECCAK256 DUP1 SLOAD DUP7 ADD SWAP1 SSTORE MLOAD DUP5 DUP2 MSTORE PUSH32 0xDDF252AD1BE2C89B69C2B068FC378DAA952BA7F163C4A11628F55A4DF523B3EF SWAP2 ADD PUSH1 0x40 MLOAD DUP1 SWAP2 SUB SWAP1 LOG3 POP POP JUMP JUMPDEST POP POP POP JUMP JUMPDEST PUSH4 0x4E487B71 PUSH1 0xE0 SHL PUSH0 MSTORE PUSH1 0x41 PUSH1 0x4 MSTORE PUSH1 0x24 PUSH0 REVERT JUMPDEST PUSH0 DUP3 PUSH1 0x1F DUP4 ADD SLT PUSH3 0x26B JUMPI PUSH0 DUP1 REVERT JUMPDEST DUP2 MLOAD PUSH1 0x1 PUSH1 0x1 PUSH1 0x40 SHL SUB DUP1 DUP3 GT ISZERO PUSH3 0x288 JUMPI PUSH3 0x288 PUSH3 0x247 JUMP JUMPDEST PUSH1 0x40 MLOAD PUSH1 0x1F DUP4 ADD PUSH1 0x1F NOT SWAP1 DUP2 AND PUSH1 0x3F ADD AND DUP2 ADD SWAP1 DUP3 DUP3 GT DUP2 DUP4 LT OR ISZERO PUSH3 0x2B3 JUMPI PUSH3 0x2B3 PUSH3 0x247 JUMP JUMPDEST DUP2 PUSH1 0x40 MSTORE DUP4 DUP2 MSTORE PUSH1 0x20 SWAP3 POP DUP7 DUP4 DUP6 DUP9 ADD ADD GT ISZERO PUSH3 0x2CF JUMPI PUSH0 DUP1 REVERT JUMPDEST PUSH0 SWAP2 POP JUMPDEST DUP4 DUP3 LT ISZERO PUSH3 0x2F2 JUMPI DUP6 DUP3 ADD DUP4 ADD MLOAD DUP2 DUP4 ADD DUP5 ADD MSTORE SWAP1 DUP3 ADD SWAP1 PUSH3 0x2D3 JUMP JUMPDEST PUSH0 SWAP4 DUP2 ADD SWAP1 SWAP3 ADD SWAP3 SWAP1 SWAP3 MSTORE SWAP5 SWAP4 POP POP POP POP JUMP JUMPDEST PUSH0 DUP1 PUSH0 DUP1 PUSH0 PUSH1 0xA0 DUP7 DUP9 SUB SLT ISZERO PUSH3 0x31A JUMPI PUSH0 DUP1 REVERT JUMPDEST DUP6 MLOAD PUSH1 0x1 PUSH1 0x1 PUSH1 0x40 SHL SUB DUP1 DUP3 GT ISZERO PUSH3 0x331 JUMPI PUSH0 DUP1 REVERT JUMPDEST PUSH3 0x33F DUP10 DUP4 DUP11 ADD PUSH3 0x25B JUMP JUMPDEST SWAP7 POP PUSH1 0x20 DUP9 ADD MLOAD SWAP2 POP DUP1 DUP3 GT ISZERO PUSH3 0x355 JUMPI PUSH0 DUP1 REVERT JUMPDEST POP PUSH3 0x364 DUP9 DUP3 DUP10 ADD PUSH3 0x25B JUMP JUMPDEST PUSH1 0x40 DUP9 ADD MLOAD SWAP1 SWAP6 POP SWAP1 POP PUSH1 0x1 PUSH1 0x1 PUSH1 0xA0 SHL SUB DUP2 AND DUP2 EQ PUSH3 0x383 JUMPI PUSH0 DUP1 REVERT JUMPDEST PUSH1 0x60 DUP8 ADD MLOAD PUSH1 0x80 SWAP1 SWAP8 ADD MLOAD SWAP6 SWAP9 SWAP5 SWAP8 POP SWAP6 SWAP5 SWAP4 SWAP3 POP POP POP JUMP JUMPDEST PUSH1 0x1 DUP2 DUP2 SHR SWAP1 DUP3 AND DUP1 PUSH3 0x3B1 JUMPI PUSH1 0x7F DUP3 AND SWAP2 POP JUMPDEST PUSH1 0x20 DUP3 LT DUP2 SUB PUSH3 0x3D0 JUMPI PUSH4 0x4E487B71 PUSH1 0xE0 SHL PUSH0 MSTORE PUSH1 0x22 PUSH1 0x4 MSTORE PUSH1 0x24 PUSH0 REVERT JUMPDEST POP SWAP2 SWAP1 POP JUMP JUMPDEST PUSH1 0x1F DUP3 GT ISZERO PUSH3 0x242 JUMPI PUSH0 DUP2 DUP2 MSTORE PUSH1 0x20 DUP2 KECCAK256 PUSH1 0x1F DUP6 ADD PUSH1 0x5 SHR DUP2 ADD PUSH1 0x20 DUP7 LT ISZERO PUSH3 0x3FE JUMPI POP DUP1 JUMPDEST PUSH1 0x1F DUP6 ADD PUSH1 0x5 SHR DUP3 ADD SWAP2 POP JUMPDEST DUP2 DUP2 LT ISZERO PUSH3 0x41F JUMPI DUP3 DUP2 SSTORE PUSH1 0x1 ADD PUSH3 0x40A JUMP JUMPDEST POP POP POP POP POP POP JUMP JUMPDEST DUP2 MLOAD PUSH1 0x1 PUSH1 0x1 PUSH1 0x40 SHL SUB DUP2 GT ISZERO PUSH3 0x443 JUMPI PUSH3 0x443 PUSH3 0x247 JUMP JUMPDEST PUSH3 0x45B DUP2 PUSH3 0x454 DUP5 SLOAD PUSH3 0x39C JUMP JUMPDEST DUP5 PUSH3 0x3D6 JUMP JUMPDEST PUSH1 0x20 DUP1 PUSH1 0x1F DUP4 GT PUSH1 0x1 DUP2 EQ PUSH3 0x491 JUMPI PUSH0 DUP5 ISZERO PUSH3 0x479 JUMPI POP DUP6 DUP4 ADD MLOAD JUMPDEST PUSH0 NOT PUSH1 0x3 DUP7 SWAP1 SHL SHR NOT AND PUSH1 0x1 DUP6 SWAP1 SHL OR DUP6 SSTORE PUSH3 0x41F JUMP JUMPDEST PUSH0 DUP6 DUP2 MSTORE PUSH1 0x20 DUP2 KECCAK256 PUSH1 0x1F NOT DUP7 AND SWAP2 JUMPDEST DUP3 DUP2 LT ISZERO PUSH3 0x4C1 JUMPI DUP9 DUP7 ADD MLOAD DUP3 SSTORE SWAP5 DUP5 ADD SWAP5 PUSH1 0x1 SWAP1 SWAP2 ADD SWAP1 DUP5 ADD PUSH3 0x4A0 JUMP JUMPDEST POP DUP6 DUP3 LT ISZERO PUSH3 0x4DF JUMPI DUP8 DUP6 ADD MLOAD PUSH0 NOT PUSH1 0x3 DUP9 SWAP1 SHL PUSH1 0xF8 AND SHR NOT AND DUP2 SSTORE JUMPDEST POP POP POP POP POP PUSH1 0x1 SWAP1 DUP2 SHL ADD SWAP1 SSTORE POP JUMP JUMPDEST DUP1 DUP3 ADD DUP1 DUP3 GT ISZERO PUSH3 0x50F JUMPI PUSH4 0x4E487B71 PUSH1 0xE0 SHL PUSH0 MSTORE PUSH1 0x11 PUSH1 0x4 MSTORE PUSH1 0x24 PUSH0 REVERT JUMPDEST SWAP3 SWAP2 POP POP JUMP JUMPDEST PUSH2 0x10F8 DUP1 PUSH3 0x523 PUSH0 CODECOPY PUSH0 RETURN INVALID PUSH1 0x80 PUSH1 0x40 MSTORE CALLVALUE DUP1 ISZERO PUSH2 0xF JUMPI PUSH0 DUP1 REVERT JUMPDEST POP PUSH1 0x4 CALLDATASIZE LT PUSH2 0x1C6 JUMPI PUSH0 CALLDATALOAD PUSH1 0xE0 SHR DUP1 PUSH4 0x7866ABE0 GT PUSH2 0xFE JUMPI DUP1 PUSH4 0xA9059CBB GT PUSH2 0x9E JUMPI DUP1 PUSH4 0xEC23770D GT PUSH2 0x6E JUMPI DUP1 PUSH4 0xEC23770D EQ PUSH2 0x37B JUMPI DUP1 PUSH4 0xEF8A9235 EQ PUSH2 0x38E JUMPI DUP1 PUSH4 0xF11600B8 EQ PUSH2 0x3A8 JUMPI DUP1 PUSH4 0xF2FDE38B EQ PUSH2 0x3B2 JUMPI PUSH0 DUP1 REVERT JUMPDEST DUP1 PUSH4 0xA9059CBB EQ PUSH2 0x33A JUMPI DUP1 PUSH4 0xCA1E9738 EQ PUSH2 0x34D JUMPI DUP1 PUSH4 0xDD62ED3E EQ PUSH2 0x355 JUMPI DUP1 PUSH4 0xDFFF8568 EQ PUSH2 0x368 JUMPI PUSH0 DUP1 REVERT JUMPDEST DUP1 PUSH4 0x85F23FA7 GT PUSH2 0xD9 JUMPI DUP1 PUSH4 0x85F23FA7 EQ PUSH2 0x2F0 JUMPI DUP1 PUSH4 0x8DA5CB5B EQ PUSH2 0x2FA JUMPI DUP1 PUSH4 0x95D89B41 EQ PUSH2 0x31F JUMPI DUP1 PUSH4 0xA457C2D7 EQ PUSH2 0x327 JUMPI PUSH0 DUP1 REVERT JUMPDEST DUP1 PUSH4 0x7866ABE0 EQ PUSH2 0x2CC JUMPI DUP1 PUSH4 0x79CC6790 EQ PUSH2 0x2D4 JUMPI DUP1 PUSH4 0x7D549E99 EQ PUSH2 0x2E7 JUMPI PUSH0 DUP1 REVERT JUMPDEST DUP1 PUSH4 0x42966C68 GT PUSH2 0x169 JUMPI DUP1 PUSH4 0x65CF7C9B GT PUSH2 0x144 JUMPI DUP1 PUSH4 0x65CF7C9B EQ PUSH2 0x28A JUMPI DUP1 PUSH4 0x6C3C7FE8 EQ PUSH2 0x293 JUMPI DUP1 PUSH4 0x70A08231 EQ PUSH2 0x29C JUMPI DUP1 PUSH4 0x715018A6 EQ PUSH2 0x2C4 JUMPI PUSH0 DUP1 REVERT JUMPDEST DUP1 PUSH4 0x42966C68 EQ PUSH2 0x25A JUMPI DUP1 PUSH4 0x51C6590A EQ PUSH2 0x26F JUMPI DUP1 PUSH4 0x5F60F485 EQ PUSH2 0x282 JUMPI PUSH0 DUP1 REVERT JUMPDEST DUP1 PUSH4 0x181C6842 GT PUSH2 0x1A4 JUMPI DUP1 PUSH4 0x181C6842 EQ PUSH2 0x21D JUMPI DUP1 PUSH4 0x23B872DD EQ PUSH2 0x225 JUMPI DUP1 PUSH4 0x313CE567 EQ PUSH2 0x238 JUMPI DUP1 PUSH4 0x39509351 EQ PUSH2 0x247 JUMPI PUSH0 DUP1 REVERT JUMPDEST DUP1 PUSH4 0x6FDDE03 EQ PUSH2 0x1CA JUMPI DUP1 PUSH4 0x95EA7B3 EQ PUSH2 0x1E8 JUMPI DUP1 PUSH4 0x18160DDD EQ PUSH2 0x20B JUMPI JUMPDEST PUSH0 DUP1 REVERT JUMPDEST PUSH2 0x1D2 PUSH2 0x3C5 JUMP JUMPDEST PUSH1 0x40 MLOAD PUSH2 0x1DF SWAP2 SWAP1 PUSH2 0xE8E JUMP JUMPDEST PUSH1 0x40 MLOAD DUP1 SWAP2 SUB SWAP1 RETURN JUMPDEST PUSH2 0x1FB PUSH2 0x1F6 CALLDATASIZE PUSH1 0x4 PUSH2 0xEF4 JUMP JUMPDEST PUSH2 0x455 JUMP JUMPDEST PUSH1 0x40 MLOAD SWAP1 ISZERO ISZERO DUP2 MSTORE PUSH1 0x20 ADD PUSH2 0x1DF JUMP JUMPDEST PUSH1 0x2 SLOAD JUMPDEST PUSH1 0x40 MLOAD SWAP1 DUP2 MSTORE PUSH1 0x20 ADD PUSH2 0x1DF JUMP JUMPDEST PUSH2 0x1D2 PUSH2 0x46E JUMP JUMPDEST PUSH2 0x1FB PUSH2 0x233 CALLDATASIZE PUSH1 0x4 PUSH2 0xF1C JUMP JUMPDEST PUSH2 0x4FA JUMP JUMPDEST PUSH1 0x40 MLOAD PUSH1 0x12 DUP2 MSTORE PUSH1 0x20 ADD PUSH2 0x1DF JUMP JUMPDEST PUSH2 0x1FB PUSH2 0x255 CALLDATASIZE PUSH1 0x4 PUSH2 0xEF4 JUMP JUMPDEST PUSH2 0x51D JUMP JUMPDEST PUSH2 0x26D PUSH2 0x268 CALLDATASIZE PUSH1 0x4 PUSH2 0xF55 JUMP JUMPDEST PUSH2 0x53E JUMP JUMPDEST STOP JUMPDEST PUSH2 0x26D PUSH2 0x27D CALLDATASIZE PUSH1 0x4 PUSH2 0xF55 JUMP JUMPDEST PUSH2 0x54B JUMP JUMPDEST PUSH2 0x26D PUSH2 0x5A4 JUMP JUMPDEST PUSH2 0x20F PUSH1 0x9 SLOAD DUP2 JUMP JUMPDEST PUSH2 0x20F PUSH1 0xB SLOAD DUP2 JUMP JUMPDEST PUSH2 0x20F PUSH2 0x2AA CALLDATASIZE PUSH1 0x4 PUSH2 0xF6C JUMP JUMPDEST PUSH1 0x1 PUSH1 0x1 PUSH1 0xA0 SHL SUB AND PUSH0 SWAP1 DUP2 MSTORE PUSH1 0x20 DUP2 SWAP1 MSTORE PUSH1 0x40 SWAP1 KECCAK256 SLOAD SWAP1 JUMP JUMPDEST PUSH2 0x26D PUSH2 0x6F0 JUMP JUMPDEST PUSH2 0x1D2 PUSH2 0x703 JUMP JUMPDEST PUSH2 0x26D PUSH2 0x2E2 CALLDATASIZE PUSH1 0x4 PUSH2 0xEF4 JUMP JUMPDEST PUSH2 0x710 JUMP JUMPDEST PUSH2 0x20F PUSH1 0xC SLOAD DUP2 JUMP JUMPDEST PUSH2 0x20F PUSH3 0x127500 DUP2 JUMP JUMPDEST PUSH1 0x5 SLOAD PUSH1 0x1 PUSH1 0x1 PUSH1 0xA0 SHL SUB AND JUMPDEST PUSH1 0x40 MLOAD PUSH1 0x1 PUSH1 0x1 PUSH1 0xA0 SHL SUB SWAP1 SWAP2 AND DUP2 MSTORE PUSH1 0x20 ADD PUSH2 0x1DF JUMP JUMPDEST PUSH2 0x1D2 PUSH2 0x725 JUMP JUMPDEST PUSH2 0x1FB PUSH2 0x335 CALLDATASIZE PUSH1 0x4 PUSH2 0xEF4 JUMP JUMPDEST PUSH2 0x734 JUMP JUMPDEST PUSH2 0x1FB PUSH2 0x348 CALLDATASIZE PUSH1 0x4 PUSH2 0xEF4 JUMP JUMPDEST PUSH2 0x7B3 JUMP JUMPDEST PUSH2 0x20F PUSH2 0x7C0 JUMP JUMPDEST PUSH2 0x20F PUSH2 0x363 CALLDATASIZE PUSH1 0x4 PUSH2 0xF8C JUMP JUMPDEST PUSH2 0x7F6 JUMP JUMPDEST PUSH2 0x26D PUSH2 0x376 CALLDATASIZE PUSH1 0x4 PUSH2 0xF55 JUMP JUMPDEST PUSH2 0x820 JUMP JUMPDEST PUSH1 0x8 SLOAD PUSH2 0x307 SWAP1 PUSH1 0x1 PUSH1 0x1 PUSH1 0xA0 SHL SUB AND DUP2 JUMP JUMPDEST PUSH1 0xA SLOAD PUSH2 0x39B SWAP1 PUSH1 0xFF AND DUP2 JUMP JUMPDEST PUSH1 0x40 MLOAD PUSH2 0x1DF SWAP2 SWAP1 PUSH2 0xFF1 JUMP JUMPDEST PUSH2 0x20F PUSH3 0x278D00 DUP2 JUMP JUMPDEST PUSH2 0x26D PUSH2 0x3C0 CALLDATASIZE PUSH1 0x4 PUSH2 0xF6C JUMP JUMPDEST PUSH2 0x907 JUMP JUMPDEST PUSH1 0x60 PUSH1 0x3 DUP1 SLOAD PUSH2 0x3D4 SWAP1 PUSH2 0xFFF JUMP JUMPDEST DUP1 PUSH1 0x1F ADD PUSH1 0x20 DUP1 SWAP2 DIV MUL PUSH1 0x20 ADD PUSH1 0x40 MLOAD SWAP1 DUP2 ADD PUSH1 0x40 MSTORE DUP1 SWAP3 SWAP2 SWAP1 DUP2 DUP2 MSTORE PUSH1 0x20 ADD DUP3 DUP1 SLOAD PUSH2 0x400 SWAP1 PUSH2 0xFFF JUMP JUMPDEST DUP1 ISZERO PUSH2 0x44B JUMPI DUP1 PUSH1 0x1F LT PUSH2 0x422 JUMPI PUSH2 0x100 DUP1 DUP4 SLOAD DIV MUL DUP4 MSTORE SWAP2 PUSH1 0x20 ADD SWAP2 PUSH2 0x44B JUMP JUMPDEST DUP3 ADD SWAP2 SWAP1 PUSH0 MSTORE PUSH1 0x20 PUSH0 KECCAK256 SWAP1 JUMPDEST DUP2 SLOAD DUP2 MSTORE SWAP1 PUSH1 0x1 ADD SWAP1 PUSH1 0x20 ADD DUP1 DUP4 GT PUSH2 0x42E JUMPI DUP3 SWAP1 SUB PUSH1 0x1F AND DUP3 ADD SWAP2 JUMPDEST POP POP POP POP POP SWAP1 POP SWAP1 JUMP JUMPDEST PUSH0 CALLER PUSH2 0x462 DUP2 DUP6 DUP6 PUSH2 0x97D JUMP JUMPDEST PUSH1 0x1 SWAP2 POP POP JUMPDEST SWAP3 SWAP2 POP POP JUMP JUMPDEST PUSH1 0x6 DUP1 SLOAD PUSH2 0x47B SWAP1 PUSH2 0xFFF JUMP JUMPDEST DUP1 PUSH1 0x1F ADD PUSH1 0x20 DUP1 SWAP2 DIV MUL PUSH1 0x20 ADD PUSH1 0x40 MLOAD SWAP1 DUP2 ADD PUSH1 0x40 MSTORE DUP1 SWAP3 SWAP2 SWAP1 DUP2 DUP2 MSTORE PUSH1 0x20 ADD DUP3 DUP1 SLOAD PUSH2 0x4A7 SWAP1 PUSH2 0xFFF JUMP JUMPDEST DUP1 ISZERO PUSH2 0x4F2 JUMPI DUP1 PUSH1 0x1F LT PUSH2 0x4C9 JUMPI PUSH2 0x100 DUP1 DUP4 SLOAD DIV MUL DUP4 MSTORE SWAP2 PUSH1 0x20 ADD SWAP2 PUSH2 0x4F2 JUMP JUMPDEST DUP3 ADD SWAP2 SWAP1 PUSH0 MSTORE PUSH1 0x20 PUSH0 KECCAK256 SWAP1 JUMPDEST DUP2 SLOAD DUP2 MSTORE SWAP1 PUSH1 0x1 ADD SWAP1 PUSH1 0x20 ADD DUP1 DUP4 GT PUSH2 0x4D5 JUMPI DUP3 SWAP1 SUB PUSH1 0x1F AND DUP3 ADD SWAP2 JUMPDEST POP POP POP POP POP DUP2 JUMP JUMPDEST PUSH0 CALLER PUSH2 0x507 DUP6 DUP3 DUP6 PUSH2 0xAA1 JUMP JUMPDEST PUSH2 0x512 DUP6 DUP6 DUP6 PUSH2 0xB19 JUMP JUMPDEST POP PUSH1 0x1 SWAP5 SWAP4 POP POP POP POP JUMP JUMPDEST PUSH0 CALLER PUSH2 0x462 DUP2 DUP6 DUP6 PUSH2 0x52F DUP4 DUP4 PUSH2 0x7F6 JUMP JUMPDEST PUSH2 0x539 SWAP2 SWAP1 PUSH2 0x104B JUMP JUMPDEST PUSH2 0x97D JUMP JUMPDEST PUSH2 0x548 CALLER DUP3 PUSH2 0xCBB JUMP JUMPDEST POP JUMP JUMPDEST PUSH2 0x553 PUSH2 0xDE3 JUMP JUMPDEST DUP1 PUSH1 0xB PUSH0 DUP3 DUP3 SLOAD PUSH2 0x564 SWAP2 SWAP1 PUSH2 0x104B JUMP JUMPDEST SWAP1 SWAP2 SSTORE POP POP PUSH1 0x40 DUP1 MLOAD DUP3 DUP2 MSTORE PUSH0 PUSH1 0x20 DUP3 ADD MSTORE PUSH32 0x38F8A0C92F4C5B0B6877F878CB4C0C8D348A47B76D716C8E78F425043DF9515B SWAP2 ADD PUSH1 0x40 MLOAD DUP1 SWAP2 SUB SWAP1 LOG1 POP JUMP JUMPDEST PUSH0 PUSH1 0x9 SLOAD TIMESTAMP PUSH2 0x5B3 SWAP2 SWAP1 PUSH2 0x105E JUMP JUMPDEST PUSH1 0xA SLOAD SWAP1 SWAP2 POP PUSH1 0xFF AND PUSH0 DUP2 PUSH1 0x3 DUP2 GT ISZERO PUSH2 0x5CF JUMPI PUSH2 0x5CF PUSH2 0xFBD JUMP JUMPDEST EQ DUP1 ISZERO PUSH2 0x5DF JUMPI POP PUSH3 0x15180 DUP3 LT ISZERO JUMPDEST ISZERO PUSH2 0x5EC JUMPI POP PUSH1 0x1 PUSH2 0x660 JUMP JUMPDEST PUSH1 0x1 PUSH1 0xA SLOAD PUSH1 0xFF AND PUSH1 0x3 DUP2 GT ISZERO PUSH2 0x605 JUMPI PUSH2 0x605 PUSH2 0xFBD JUMP JUMPDEST EQ DUP1 ISZERO PUSH2 0x615 JUMPI POP PUSH3 0x127500 DUP3 LT ISZERO JUMPDEST ISZERO PUSH2 0x622 JUMPI POP PUSH1 0x2 PUSH2 0x660 JUMP JUMPDEST PUSH1 0x2 PUSH1 0xA SLOAD PUSH1 0xFF AND PUSH1 0x3 DUP2 GT ISZERO PUSH2 0x63B JUMPI PUSH2 0x63B PUSH2 0xFBD JUMP JUMPDEST EQ DUP1 ISZERO PUSH2 0x657 JUMPI POP PUSH2 0x653 PUSH3 0x278D00 PUSH3 0x127500 PUSH2 0x104B JUMP JUMPDEST DUP3 LT ISZERO JUMPDEST ISZERO PUSH2 0x660 JUMPI POP PUSH1 0x3 JUMPDEST PUSH1 0xA SLOAD PUSH1 0xFF AND PUSH1 0x3 DUP2 GT ISZERO PUSH2 0x677 JUMPI PUSH2 0x677 PUSH2 0xFBD JUMP JUMPDEST DUP2 PUSH1 0x3 DUP2 GT ISZERO PUSH2 0x689 JUMPI PUSH2 0x689 PUSH2 0xFBD JUMP JUMPDEST EQ PUSH2 0x6EC JUMPI PUSH1 0xA DUP1 SLOAD DUP3 SWAP2 SWAP1 PUSH1 0xFF NOT AND PUSH1 0x1 DUP4 PUSH1 0x3 DUP2 GT ISZERO PUSH2 0x6AD JUMPI PUSH2 0x6AD PUSH2 0xFBD JUMP JUMPDEST MUL OR SWAP1 SSTORE POP PUSH32 0x40A180796B90921DD8508EB434C78206CA5C737A0D584582EDF399BC9711D9E9 DUP2 TIMESTAMP PUSH1 0x40 MLOAD PUSH2 0x6E3 SWAP3 SWAP2 SWAP1 PUSH2 0x1071 JUMP JUMPDEST PUSH1 0x40 MLOAD DUP1 SWAP2 SUB SWAP1 LOG1 JUMPDEST POP POP JUMP JUMPDEST PUSH2 0x6F8 PUSH2 0xDE3 JUMP JUMPDEST PUSH2 0x701 PUSH0 PUSH2 0xE3D JUMP JUMPDEST JUMP JUMPDEST PUSH1 0x7 DUP1 SLOAD PUSH2 0x47B SWAP1 PUSH2 0xFFF JUMP JUMPDEST PUSH2 0x71B DUP3 CALLER DUP4 PUSH2 0xAA1 JUMP JUMPDEST PUSH2 0x6EC DUP3 DUP3 PUSH2 0xCBB JUMP JUMPDEST PUSH1 0x60 PUSH1 0x4 DUP1 SLOAD PUSH2 0x3D4 SWAP1 PUSH2 0xFFF JUMP JUMPDEST PUSH0 CALLER DUP2 PUSH2 0x741 DUP3 DUP7 PUSH2 0x7F6 JUMP JUMPDEST SWAP1 POP DUP4 DUP2 LT ISZERO PUSH2 0x7A6 JUMPI PUSH1 0x40 MLOAD PUSH3 0x461BCD PUSH1 0xE5 SHL DUP2 MSTORE PUSH1 0x20 PUSH1 0x4 DUP3 ADD MSTORE PUSH1 0x25 PUSH1 0x24 DUP3 ADD MSTORE PUSH32 0x45524332303A2064656372656173656420616C6C6F77616E63652062656C6F77 PUSH1 0x44 DUP3 ADD MSTORE PUSH5 0x207A65726F PUSH1 0xD8 SHL PUSH1 0x64 DUP3 ADD MSTORE PUSH1 0x84 ADD JUMPDEST PUSH1 0x40 MLOAD DUP1 SWAP2 SUB SWAP1 REVERT JUMPDEST PUSH2 0x512 DUP3 DUP7 DUP7 DUP5 SUB PUSH2 0x97D JUMP JUMPDEST PUSH0 CALLER PUSH2 0x462 DUP2 DUP6 DUP6 PUSH2 0xB19 JUMP JUMPDEST PUSH0 PUSH1 0xC SLOAD PUSH0 SUB PUSH2 0x7CF JUMPI POP PUSH0 SWAP1 JUMP JUMPDEST PUSH1 0xC SLOAD PUSH1 0xB SLOAD PUSH2 0x7E7 SWAP1 PUSH8 0xDE0B6B3A7640000 PUSH2 0x108C JUMP JUMPDEST PUSH2 0x7F1 SWAP2 SWAP1 PUSH2 0x10A3 JUMP JUMPDEST SWAP1 POP SWAP1 JUMP JUMPDEST PUSH1 0x1 PUSH1 0x1 PUSH1 0xA0 SHL SUB SWAP2 DUP3 AND PUSH0 SWAP1 DUP2 MSTORE PUSH1 0x1 PUSH1 0x20 SWAP1 DUP2 MSTORE PUSH1 0x40 DUP1 DUP4 KECCAK256 SWAP4 SWAP1 SWAP5 AND DUP3 MSTORE SWAP2 SWAP1 SWAP2 MSTORE KECCAK256 SLOAD SWAP1 JUMP JUMPDEST PUSH2 0x828 PUSH2 0xDE3 JUMP JUMPDEST PUSH0 DUP2 GT DUP1 ISZERO PUSH2 0x839 JUMPI POP PUSH1 0xC SLOAD DUP2 GT ISZERO JUMPDEST PUSH2 0x87B JUMPI PUSH1 0x40 MLOAD PUSH3 0x461BCD PUSH1 0xE5 SHL DUP2 MSTORE PUSH1 0x20 PUSH1 0x4 DUP3 ADD MSTORE PUSH1 0x13 PUSH1 0x24 DUP3 ADD MSTORE PUSH19 0x125B9D985B1A5908189D5C9B88185B5BDD5B9D PUSH1 0x6A SHL PUSH1 0x44 DUP3 ADD MSTORE PUSH1 0x64 ADD PUSH2 0x79D JUMP JUMPDEST PUSH0 PUSH1 0xC SLOAD DUP3 PUSH1 0xB SLOAD PUSH2 0x88D SWAP2 SWAP1 PUSH2 0x108C JUMP JUMPDEST PUSH2 0x897 SWAP2 SWAP1 PUSH2 0x10A3 JUMP JUMPDEST SWAP1 POP PUSH2 0x8A3 ADDRESS DUP4 PUSH2 0xCBB JUMP JUMPDEST DUP2 PUSH1 0xC PUSH0 DUP3 DUP3 SLOAD PUSH2 0x8B4 SWAP2 SWAP1 PUSH2 0x105E JUMP JUMPDEST SWAP3 POP POP DUP2 SWAP1 SSTORE POP DUP1 PUSH1 0xB PUSH0 DUP3 DUP3 SLOAD PUSH2 0x8CC SWAP2 SWAP1 PUSH2 0x105E JUMP JUMPDEST SWAP1 SWAP2 SSTORE POP POP PUSH1 0x40 DUP1 MLOAD DUP4 DUP2 MSTORE PUSH1 0x20 DUP2 ADD DUP4 SWAP1 MSTORE PUSH32 0x1B18DBC3B99B010A86877CB392AC10EEFD175155AEC08AA351DAEDC87F154153 SWAP2 ADD PUSH2 0x6E3 JUMP JUMPDEST PUSH2 0x90F PUSH2 0xDE3 JUMP JUMPDEST PUSH1 0x1 PUSH1 0x1 PUSH1 0xA0 SHL SUB DUP2 AND PUSH2 0x974 JUMPI PUSH1 0x40 MLOAD PUSH3 0x461BCD PUSH1 0xE5 SHL DUP2 MSTORE PUSH1 0x20 PUSH1 0x4 DUP3 ADD MSTORE PUSH1 0x26 PUSH1 0x24 DUP3 ADD MSTORE PUSH32 0x4F776E61626C653A206E6577206F776E657220697320746865207A65726F2061 PUSH1 0x44 DUP3 ADD MSTORE PUSH6 0x646472657373 PUSH1 0xD0 SHL PUSH1 0x64 DUP3 ADD MSTORE PUSH1 0x84 ADD PUSH2 0x79D JUMP JUMPDEST PUSH2 0x548 DUP2 PUSH2 0xE3D JUMP JUMPDEST PUSH1 0x1 PUSH1 0x1 PUSH1 0xA0 SHL SUB DUP4 AND PUSH2 0x9DF JUMPI PUSH1 0x40 MLOAD PUSH3 0x461BCD PUSH1 0xE5 SHL DUP2 MSTORE PUSH1 0x20 PUSH1 0x4 DUP3 ADD MSTORE PUSH1 0x24 DUP1 DUP3 ADD MSTORE PUSH32 0x45524332303A20617070726F76652066726F6D20746865207A65726F20616464 PUSH1 0x44 DUP3 ADD MSTORE PUSH4 0x72657373 PUSH1 0xE0 SHL PUSH1 0x64 DUP3 ADD MSTORE PUSH1 0x84 ADD PUSH2 0x79D JUMP JUMPDEST PUSH1 0x1 PUSH1 0x1 PUSH1 0xA0 SHL SUB DUP3 AND PUSH2 0xA40 JUMPI PUSH1 0x40 MLOAD PUSH3 0x461BCD PUSH1 0xE5 SHL DUP2 MSTORE PUSH1 0x20 PUSH1 0x4 DUP3 ADD MSTORE PUSH1 0x22 PUSH1 0x24 DUP3 ADD MSTORE PUSH32 0x45524332303A20617070726F766520746F20746865207A65726F206164647265 PUSH1 0x44 DUP3 ADD MSTORE PUSH2 0x7373 PUSH1 0xF0 SHL PUSH1 0x64 DUP3 ADD MSTORE PUSH1 0x84 ADD PUSH2 0x79D JUMP JUMPDEST PUSH1 0x1 PUSH1 0x1 PUSH1 0xA0 SHL SUB DUP4 DUP2 AND PUSH0 DUP2 DUP2 MSTORE PUSH1 0x1 PUSH1 0x20 SWAP1 DUP2 MSTORE PUSH1 0x40 DUP1 DUP4 KECCAK256 SWAP5 DUP8 AND DUP1 DUP5 MSTORE SWAP5 DUP3 MSTORE SWAP2 DUP3 SWAP1 KECCAK256 DUP6 SWAP1 SSTORE SWAP1 MLOAD DUP5 DUP2 MSTORE PUSH32 0x8C5BE1E5EBEC7D5BD14F71427D1E84F3DD0314C0F7B2291E5B200AC8C7C3B925 SWAP2 ADD JUMPDEST PUSH1 0x40 MLOAD DUP1 SWAP2 SUB SWAP1 LOG3 POP POP POP JUMP JUMPDEST PUSH0 PUSH2 0xAAC DUP5 DUP5 PUSH2 0x7F6 JUMP JUMPDEST SWAP1 POP PUSH0 NOT DUP2 EQ PUSH2 0xB13 JUMPI DUP2 DUP2 LT ISZERO PUSH2 0xB06 JUMPI PUSH1 0x40 MLOAD PUSH3 0x461BCD PUSH1 0xE5 SHL DUP2 MSTORE PUSH1 0x20 PUSH1 0x4 DUP3 ADD MSTORE PUSH1 0x1D PUSH1 0x24 DUP3 ADD MSTORE PUSH32 0x45524332303A20696E73756666696369656E7420616C6C6F77616E6365000000 PUSH1 0x44 DUP3 ADD MSTORE PUSH1 0x64 ADD PUSH2 0x79D JUMP JUMPDEST PUSH2 0xB13 DUP5 DUP5 DUP5 DUP5 SUB PUSH2 0x97D JUMP JUMPDEST POP POP POP POP JUMP JUMPDEST PUSH1 0x1 PUSH1 0x1 PUSH1 0xA0 SHL SUB DUP4 AND PUSH2 0xB7D JUMPI PUSH1 0x40 MLOAD PUSH3 0x461BCD PUSH1 0xE5 SHL DUP2 MSTORE PUSH1 0x20 PUSH1 0x4 DUP3 ADD MSTORE PUSH1 0x25 PUSH1 0x24 DUP3 ADD MSTORE PUSH32 0x45524332303A207472616E736665722066726F6D20746865207A65726F206164 PUSH1 0x44 DUP3 ADD MSTORE PUSH5 0x6472657373 PUSH1 0xD8 SHL PUSH1 0x64 DUP3 ADD MSTORE PUSH1 0x84 ADD PUSH2 0x79D JUMP JUMPDEST PUSH1 0x1 PUSH1 0x1 PUSH1 0xA0 SHL SUB DUP3 AND PUSH2 0xBDF JUMPI PUSH1 0x40 MLOAD PUSH3 0x461BCD PUSH1 0xE5 SHL DUP2 MSTORE PUSH1 0x20 PUSH1 0x4 DUP3 ADD MSTORE PUSH1 0x23 PUSH1 0x24 DUP3 ADD MSTORE PUSH32 0x45524332303A207472616E7366657220746F20746865207A65726F2061646472 PUSH1 0x44 DUP3 ADD MSTORE PUSH3 0x657373 PUSH1 0xE8 SHL PUSH1 0x64 DUP3 ADD MSTORE PUSH1 0x84 ADD PUSH2 0x79D JUMP JUMPDEST PUSH1 0x1 PUSH1 0x1 PUSH1 0xA0 SHL SUB DUP4 AND PUSH0 SWAP1 DUP2 MSTORE PUSH1 0x20 DUP2 SWAP1 MSTORE PUSH1 0x40 SWAP1 KECCAK256 SLOAD DUP2 DUP2 LT ISZERO PUSH2 0xC56 JUMPI PUSH1 0x40 MLOAD PUSH3 0x461BCD PUSH1 0xE5 SHL DUP2 MSTORE PUSH1 0x20 PUSH1 0x4 DUP3 ADD MSTORE PUSH1 0x26 PUSH1 0x24 DUP3 ADD MSTORE PUSH32 0x45524332303A207472616E7366657220616D6F756E7420657863656564732062 PUSH1 0x44 DUP3 ADD MSTORE PUSH6 0x616C616E6365 PUSH1 0xD0 SHL PUSH1 0x64 DUP3 ADD MSTORE PUSH1 0x84 ADD PUSH2 0x79D JUMP JUMPDEST PUSH1 0x1 PUSH1 0x1 PUSH1 0xA0 SHL SUB DUP5 DUP2 AND PUSH0 DUP2 DUP2 MSTORE PUSH1 0x20 DUP2 DUP2 MSTORE PUSH1 0x40 DUP1 DUP4 KECCAK256 DUP8 DUP8 SUB SWAP1 SSTORE SWAP4 DUP8 AND DUP1 DUP4 MSTORE SWAP2 DUP5 SWAP1 KECCAK256 DUP1 SLOAD DUP8 ADD SWAP1 SSTORE SWAP3 MLOAD DUP6 DUP2 MSTORE SWAP1 SWAP3 PUSH32 0xDDF252AD1BE2C89B69C2B068FC378DAA952BA7F163C4A11628F55A4DF523B3EF SWAP2 ADD PUSH1 0x40 MLOAD DUP1 SWAP2 SUB SWAP1 LOG3 PUSH2 0xB13 JUMP JUMPDEST PUSH1 0x1 PUSH1 0x1 PUSH1 0xA0 SHL SUB DUP3 AND PUSH2 0xD1B JUMPI PUSH1 0x40 MLOAD PUSH3 0x461BCD PUSH1 0xE5 SHL DUP2 MSTORE PUSH1 0x20 PUSH1 0x4 DUP3 ADD MSTORE PUSH1 0x21 PUSH1 0x24 DUP3 ADD MSTORE PUSH32 0x45524332303A206275726E2066726F6D20746865207A65726F20616464726573 PUSH1 0x44 DUP3 ADD MSTORE PUSH1 0x73 PUSH1 0xF8 SHL PUSH1 0x64 DUP3 ADD MSTORE PUSH1 0x84 ADD PUSH2 0x79D JUMP JUMPDEST PUSH1 0x1 PUSH1 0x1 PUSH1 0xA0 SHL SUB DUP3 AND PUSH0 SWAP1 DUP2 MSTORE PUSH1 0x20 DUP2 SWAP1 MSTORE PUSH1 0x40 SWAP1 KECCAK256 SLOAD DUP2 DUP2 LT ISZERO PUSH2 0xD8E JUMPI PUSH1 0x40 MLOAD PUSH3 0x461BCD PUSH1 0xE5 SHL DUP2 MSTORE PUSH1 0x20 PUSH1 0x4 DUP3 ADD MSTORE PUSH1 0x22 PUSH1 0x24 DUP3 ADD MSTORE PUSH32 0x45524332303A206275726E20616D6F756E7420657863656564732062616C616E PUSH1 0x44 DUP3 ADD MSTORE PUSH2 0x6365 PUSH1 0xF0 SHL PUSH1 0x64 DUP3 ADD MSTORE PUSH1 0x84 ADD PUSH2 0x79D JUMP JUMPDEST PUSH1 0x1 PUSH1 0x1 PUSH1 0xA0 SHL SUB DUP4 AND PUSH0 DUP2 DUP2 MSTORE PUSH1 0x20 DUP2 DUP2 MSTORE PUSH1 0x40 DUP1 DUP4 KECCAK256 DUP7 DUP7 SUB SWAP1 SSTORE PUSH1 0x2 DUP1 SLOAD DUP8 SWAP1 SUB SWAP1 SSTORE MLOAD DUP6 DUP2 MSTORE SWAP2 SWAP3 SWAP2 PUSH32 0xDDF252AD1BE2C89B69C2B068FC378DAA952BA7F163C4A11628F55A4DF523B3EF SWAP2 ADD PUSH2 0xA94 JUMP JUMPDEST PUSH1 0x5 SLOAD PUSH1 0x1 PUSH1 0x1 PUSH1 0xA0 SHL SUB AND CALLER EQ PUSH2 0x701 JUMPI PUSH1 0x40 MLOAD PUSH3 0x461BCD PUSH1 0xE5 SHL DUP2 MSTORE PUSH1 0x20 PUSH1 0x4 DUP3 ADD DUP2 SWAP1 MSTORE PUSH1 0x24 DUP3 ADD MSTORE PUSH32 0x4F776E61626C653A2063616C6C6572206973206E6F7420746865206F776E6572 PUSH1 0x44 DUP3 ADD MSTORE PUSH1 0x64 ADD PUSH2 0x79D JUMP JUMPDEST PUSH1 0x5 DUP1 SLOAD PUSH1 0x1 PUSH1 0x1 PUSH1 0xA0 SHL SUB DUP4 DUP2 AND PUSH1 0x1 PUSH1 0x1 PUSH1 0xA0 SHL SUB NOT DUP4 AND DUP2 OR SWAP1 SWAP4 SSTORE PUSH1 0x40 MLOAD SWAP2 AND SWAP2 SWAP1 DUP3 SWAP1 PUSH32 0x8BE0079C531659141344CD1FD0A4F28419497F9722A3DAAFE3B4186F6B6457E0 SWAP1 PUSH0 SWAP1 LOG3 POP POP JUMP JUMPDEST PUSH0 PUSH1 0x20 DUP1 DUP4 MSTORE DUP4 MLOAD DUP1 DUP3 DUP6 ADD MSTORE PUSH0 JUMPDEST DUP2 DUP2 LT ISZERO PUSH2 0xEB9 JUMPI DUP6 DUP2 ADD DUP4 ADD MLOAD DUP6 DUP3 ADD PUSH1 0x40 ADD MSTORE DUP3 ADD PUSH2 0xE9D JUMP JUMPDEST POP PUSH0 PUSH1 0x40 DUP3 DUP7 ADD ADD MSTORE PUSH1 0x40 PUSH1 0x1F NOT PUSH1 0x1F DUP4 ADD AND DUP6 ADD ADD SWAP3 POP POP POP SWAP3 SWAP2 POP POP JUMP JUMPDEST DUP1 CALLDATALOAD PUSH1 0x1 PUSH1 0x1 PUSH1 0xA0 SHL SUB DUP2 AND DUP2 EQ PUSH2 0xEEF JUMPI PUSH0 DUP1 REVERT JUMPDEST SWAP2 SWAP1 POP JUMP JUMPDEST PUSH0 DUP1 PUSH1 0x40 DUP4 DUP6 SUB SLT ISZERO PUSH2 0xF05 JUMPI PUSH0 DUP1 REVERT JUMPDEST PUSH2 0xF0E DUP4 PUSH2 0xED9 JUMP JUMPDEST SWAP5 PUSH1 0x20 SWAP4 SWAP1 SWAP4 ADD CALLDATALOAD SWAP4 POP POP POP JUMP JUMPDEST PUSH0 DUP1 PUSH0 PUSH1 0x60 DUP5 DUP7 SUB SLT ISZERO PUSH2 0xF2E JUMPI PUSH0 DUP1 REVERT JUMPDEST PUSH2 0xF37 DUP5 PUSH2 0xED9 JUMP JUMPDEST SWAP3 POP PUSH2 0xF45 PUSH1 0x20 DUP6 ADD PUSH2 0xED9 JUMP JUMPDEST SWAP2 POP PUSH1 0x40 DUP5 ADD CALLDATALOAD SWAP1 POP SWAP3 POP SWAP3 POP SWAP3 JUMP JUMPDEST PUSH0 PUSH1 0x20 DUP3 DUP5 SUB SLT ISZERO PUSH2 0xF65 JUMPI PUSH0 DUP1 REVERT JUMPDEST POP CALLDATALOAD SWAP2 SWAP1 POP JUMP JUMPDEST PUSH0 PUSH1 0x20 DUP3 DUP5 SUB SLT ISZERO PUSH2 0xF7C JUMPI PUSH0 DUP1 REVERT JUMPDEST PUSH2 0xF85 DUP3 PUSH2 0xED9 JUMP JUMPDEST SWAP4 SWAP3 POP POP POP JUMP JUMPDEST PUSH0 DUP1 PUSH1 0x40 DUP4 DUP6 SUB SLT ISZERO PUSH2 0xF9D JUMPI PUSH0 DUP1 REVERT JUMPDEST PUSH2 0xFA6 DUP4 PUSH2 0xED9 JUMP JUMPDEST SWAP2 POP PUSH2 0xFB4 PUSH1 0x20 DUP5 ADD PUSH2 0xED9 JUMP JUMPDEST SWAP1 POP SWAP3 POP SWAP3 SWAP1 POP JUMP JUMPDEST PUSH4 0x4E487B71 PUSH1 0xE0 SHL PUSH0 MSTORE PUSH1 0x21 PUSH1 0x4 MSTORE PUSH1 0x24 PUSH0 REVERT JUMPDEST PUSH1 0x4 DUP2 LT PUSH2 0xFED JUMPI PUSH4 0x4E487B71 PUSH1 0xE0 SHL PUSH0 MSTORE PUSH1 0x21 PUSH1 0x4 MSTORE PUSH1 0x24 PUSH0 REVERT JUMPDEST SWAP1 MSTORE JUMP JUMPDEST PUSH1 0x20 DUP2 ADD PUSH2 0x468 DUP3 DUP5 PUSH2 0xFD1 JUMP JUMPDEST PUSH1 0x1 DUP2 DUP2 SHR SWAP1 DUP3 AND DUP1 PUSH2 0x1013 JUMPI PUSH1 0x7F DUP3 AND SWAP2 POP JUMPDEST PUSH1 0x20 DUP3 LT DUP2 SUB PUSH2 0x1031 JUMPI PUSH4 0x4E487B71 PUSH1 0xE0 SHL PUSH0 MSTORE PUSH1 0x22 PUSH1 0x4 MSTORE PUSH1 0x24 PUSH0 REVERT JUMPDEST POP SWAP2 SWAP1 POP JUMP JUMPDEST PUSH4 0x4E487B71 PUSH1 0xE0 SHL PUSH0 MSTORE PUSH1 0x11 PUSH1 0x4 MSTORE PUSH1 0x24 PUSH0 REVERT JUMPDEST DUP1 DUP3 ADD DUP1 DUP3 GT ISZERO PUSH2 0x468 JUMPI PUSH2 0x468 PUSH2 0x1037 JUMP JUMPDEST DUP2 DUP2 SUB DUP2 DUP2 GT ISZERO PUSH2 0x468 JUMPI PUSH2 0x468 PUSH2 0x1037 JUMP JUMPDEST PUSH1 0x40 DUP2 ADD PUSH2 0x107F DUP3 DUP6 PUSH2 0xFD1 JUMP JUMPDEST DUP3 PUSH1 0x20 DUP4 ADD MSTORE SWAP4 SWAP3 POP POP POP JUMP JUMPDEST DUP1 DUP3 MUL DUP2 ISZERO DUP3 DUP3 DIV DUP5 EQ OR PUSH2 0x468 JUMPI PUSH2 0x468 PUSH2 0x1037 JUMP JUMPDEST PUSH0 DUP3 PUSH2 0x10BD JUMPI PUSH4 0x4E487B71 PUSH1 0xE0 SHL PUSH0 MSTORE PUSH1 0x12 PUSH1 0x4 MSTORE PUSH1 0x24 PUSH0 REVERT JUMPDEST POP DIV SWAP1 JUMP INVALID LOG2 PUSH5 0x6970667358 0x22 SLT KECCAK256 0x4B 0x4E 0x4D CALL 0xDC 0xE4 PUSH32 0x64F50298DF3B6EB9EBFE97D185177D0E5A8297DC36117152B564736F6C634300 ADDMOD EQ STOP CALLER "},"methodIdentifiers":{"LAUNCH_DURATION()":"85f23fa7","MATURE_DURATION()":"f11600b8","addLiquidity(uint256)":"51c6590a","allowance(address,address)":"dd62ed3e","approve(address,uint256)":"095ea7b3","balanceOf(address)":"70a08231","burn(uint256)":"42966c68","burnFrom(address,uint256)":"79cc6790","currentStatus()":"ef8a9235","decimals()":"313ce567","decreaseAllowance(address,uint256)":"a457c2d7","emergencyBurn(uint256)":"dfff8568","getPricePerToken()":"ca1e9738","increaseAllowance(address,uint256)":"39509351","ipCreator()":"ec23770d","ipDescription()":"7866abe0","ipTitle()":"181c6842","launchTimestamp()":"65cf7c9b","liquidityPoolBalance()":"6c3c7fe8","name()":"06fdde03","owner()":"8da5cb5b","renounceOwnership()":"715018a6","symbol()":"95d89b41","totalSupply()":"18160ddd","totalTokensMinted()":"7d549e99","transfer(address,uint256)":"a9059cbb","transferFrom(address,address,uint256)":"23b872dd","transferOwnership(address)":"f2fde38b","updateStatus()":"5f60f485"}}}}}