{
  "_format": "hh3-artifact-1",
  "contractName": "IPMarketplace",
  "sourceName": "contracts/IPMarketplace.sol",
  "abi": [
    {
      "inputs": [
        {
          "internalType": "address",
          "name": "_feeCollector",
          "type": "address"
        }
      ],
      "stateMutability": "nonpayable",
      "type": "constructor"
    },
    {
      "anonymous": false,
      "inputs": [
        {
          "indexed": true,
          "internalType": "address",
          "name": "previousOwner",
          "type": "address"
        },
        {
          "indexed": true,
          "internalType": "address",
          "name": "newOwner",
          "type": "address"
        }
      ],
      "name": "OwnershipTransferred",
      "type": "event"
    },
    {
      "anonymous": false,
      "inputs": [
        {
          "indexed": true,
          "internalType": "address",
          "name": "ipToken",
          "type": "address"
        },
        {
          "indexed": true,
          "internalType": "address",
          "name": "creator",
          "type": "address"
        },
        {
          "indexed": false,
          "internalType": "uint256",
          "name": "initialTokens",
          "type": "uint256"
        },
        {
          "indexed": false,
          "internalType": "uint256",
          "name": "initialUSD",
          "type": "uint256"
        }
      ],
      "name": "PoolCreated",
      "type": "event"
    },
    {
      "anonymous": false,
      "inputs": [
        {
          "indexed": true,
          "internalType": "address",
          "name": "buyer",
          "type": "address"
        },
        {
          "indexed": true,
          "internalType": "address",
          "name": "ipToken",
          "type": "address"
        },
        {
          "indexed": false,
          "internalType": "uint256",
          "name": "tokenAmount",
          "type": "uint256"
        },
        {
          "indexed": false,
          "internalType": "uint256",
          "name": "usdPaid",
          "type": "uint256"
        },
        {
          "indexed": false,
          "internalType": "uint256",
          "name": "fee",
          "type": "uint256"
        }
      ],
      "name": "TokensBought",
      "type": "event"
    },
    {
      "anonymous": false,
      "inputs": [
        {
          "indexed": true,
          "internalType": "address",
          "name": "seller",
          "type": "address"
        },
        {
          "indexed": true,
          "internalType": "address",
          "name": "ipToken",
          "type": "address"
        },
        {
          "indexed": false,
          "internalType": "uint256",
          "name": "tokenAmount",
          "type": "uint256"
        },
        {
          "indexed": false,
          "internalType": "uint256",
          "name": "usdReceived",
          "type": "uint256"
        },
        {
          "indexed": false,
          "internalType": "uint256",
          "name": "fee",
          "type": "uint256"
        }
      ],
      "name": "TokensSold",
      "type": "event"
    },
    {
      "anonymous": false,
      "inputs": [
        {
          "indexed": true,
          "internalType": "address",
          "name": "trader",
          "type": "address"
        },
        {
          "indexed": true,
          "internalType": "address",
          "name": "ipToken",
          "type": "address"
        },
        {
          "indexed": false,
          "internalType": "bool",
          "name": "isBuy",
          "type": "bool"
        },
        {
          "indexed": false,
          "internalType": "uint256",
          "name": "timestamp",
          "type": "uint256"
        }
      ],
      "name": "TransactionRecorded",
      "type": "event"
    },
    {
      "inputs": [],
      "name": "FEE_DIVISOR",
      "outputs": [
        {
          "internalType": "uint256",
          "name": "",
          "type": "uint256"
        }
      ],
      "stateMutability": "view",
      "type": "function"
    },
    {
      "inputs": [],
      "name": "FEE_PERCENTAGE",
      "outputs": [
        {
          "internalType": "uint256",
          "name": "",
          "type": "uint256"
        }
      ],
      "stateMutability": "view",
      "type": "function"
    },
    {
      "inputs": [
        {
          "internalType": "uint256",
          "name": "",
          "type": "uint256"
        }
      ],
      "name": "allTransactions",
      "outputs": [
        {
          "internalType": "address",
          "name": "trader",
          "type": "address"
        },
        {
          "internalType": "address",
          "name": "ipToken",
          "type": "address"
        },
        {
          "internalType": "bool",
          "name": "isBuy",
          "type": "bool"
        },
        {
          "internalType": "uint256",
          "name": "tokenAmount",
          "type": "uint256"
        },
        {
          "internalType": "uint256",
          "name": "usdAmount",
          "type": "uint256"
        },
        {
          "internalType": "uint256",
          "name": "feeAmount",
          "type": "uint256"
        },
        {
          "internalType": "uint256",
          "name": "timestamp",
          "type": "uint256"
        }
      ],
      "stateMutability": "view",
      "type": "function"
    },
    {
      "inputs": [
        {
          "internalType": "address",
          "name": "_ipToken",
          "type": "address"
        },
        {
          "internalType": "uint256",
          "name": "_usdAmount",
          "type": "uint256"
        }
      ],
      "name": "buyTokens",
      "outputs": [
        {
          "internalType": "uint256",
          "name": "tokensReceived",
          "type": "uint256"
        }
      ],
      "stateMutability": "nonpayable",
      "type": "function"
    },
    {
      "inputs": [
        {
          "internalType": "uint256",
          "name": "inputAmount",
          "type": "uint256"
        },
        {
          "internalType": "uint256",
          "name": "inputReserve",
          "type": "uint256"
        },
        {
          "internalType": "uint256",
          "name": "outputReserve",
          "type": "uint256"
        }
      ],
      "name": "calculateOutputAmount",
      "outputs": [
        {
          "internalType": "uint256",
          "name": "",
          "type": "uint256"
        }
      ],
      "stateMutability": "pure",
      "type": "function"
    },
    {
      "inputs": [
        {
          "internalType": "address",
          "name": "_ipTokenAddress",
          "type": "address"
        },
        {
          "internalType": "address",
          "name": "_creator",
          "type": "address"
        },
        {
          "internalType": "uint256",
          "name": "_initialTokenAmount",
          "type": "uint256"
        },
        {
          "internalType": "uint256",
          "name": "_initialUSDAmount",
          "type": "uint256"
        }
      ],
      "name": "createPool",
      "outputs": [
        {
          "internalType": "bool",
          "name": "",
          "type": "bool"
        }
      ],
      "stateMutability": "nonpayable",
      "type": "function"
    },
    {
      "inputs": [],
      "name": "feeCollector",
      "outputs": [
        {
          "internalType": "address",
          "name": "",
          "type": "address"
        }
      ],
      "stateMutability": "view",
      "type": "function"
    },
    {
      "inputs": [],
      "name": "getAllTransactions",
      "outputs": [
        {
          "components": [
            {
              "internalType": "address",
              "name": "trader",
              "type": "address"
            },
            {
              "internalType": "address",
              "name": "ipToken",
              "type": "address"
            },
            {
              "internalType": "bool",
              "name": "isBuy",
              "type": "bool"
            },
            {
              "internalType": "uint256",
              "name": "tokenAmount",
              "type": "uint256"
            },
            {
              "internalType": "uint256",
              "name": "usdAmount",
              "type": "uint256"
            },
            {
              "internalType": "uint256",
              "name": "feeAmount",
              "type": "uint256"
            },
            {
              "internalType": "uint256",
              "name": "timestamp",
              "type": "uint256"
            }
          ],
          "internalType": "struct IPMarketplace.Transaction[]",
          "name": "",
          "type": "tuple[]"
        }
      ],
      "stateMutability": "view",
      "type": "function"
    },
    {
      "inputs": [
        {
          "internalType": "address",
          "name": "_ipToken",
          "type": "address"
        }
      ],
      "name": "getPoolInfo",
      "outputs": [
        {
          "components": [
            {
              "internalType": "address",
              "name": "ipTokenAddress",
              "type": "address"
            },
            {
              "internalType": "uint256",
              "name": "tokenReserve",
              "type": "uint256"
            },
            {
              "internalType": "uint256",
              "name": "usdReserve",
              "type": "uint256"
            },
            {
              "internalType": "uint256",
              "name": "createdAt",
              "type": "uint256"
            },
            {
              "internalType": "bool",
              "name": "isActive",
              "type": "bool"
            },
            {
              "internalType": "address",
              "name": "creator",
              "type": "address"
            }
          ],
          "internalType": "struct IPMarketplace.TradingPool",
          "name": "",
          "type": "tuple"
        }
      ],
      "stateMutability": "view",
      "type": "function"
    },
    {
      "inputs": [
        {
          "internalType": "address",
          "name": "_user",
          "type": "address"
        }
      ],
      "name": "getTransactionCount",
      "outputs": [
        {
          "internalType": "uint256",
          "name": "",
          "type": "uint256"
        }
      ],
      "stateMutability": "view",
      "type": "function"
    },
    {
      "inputs": [
        {
          "internalType": "address",
          "name": "_user",
          "type": "address"
        }
      ],
      "name": "getUserTransactions",
      "outputs": [
        {
          "components": [
            {
              "internalType": "address",
              "name": "trader",
              "type": "address"
            },
            {
              "internalType": "address",
              "name": "ipToken",
              "type": "address"
            },
            {
              "internalType": "bool",
              "name": "isBuy",
              "type": "bool"
            },
            {
              "internalType": "uint256",
              "name": "tokenAmount",
              "type": "uint256"
            },
            {
              "internalType": "uint256",
              "name": "usdAmount",
              "type": "uint256"
            },
            {
              "internalType": "uint256",
              "name": "feeAmount",
              "type": "uint256"
            },
            {
              "internalType": "uint256",
              "name": "timestamp",
              "type": "uint256"
            }
          ],
          "internalType": "struct IPMarketplace.Transaction[]",
          "name": "",
          "type": "tuple[]"
        }
      ],
      "stateMutability": "view",
      "type": "function"
    },
    {
      "inputs": [],
      "name": "owner",
      "outputs": [
        {
          "internalType": "address",
          "name": "",
          "type": "address"
        }
      ],
      "stateMutability": "view",
      "type": "function"
    },
    {
      "inputs": [
        {
          "internalType": "address",
          "name": "",
          "type": "address"
        }
      ],
      "name": "pools",
      "outputs": [
        {
          "internalType": "address",
          "name": "ipTokenAddress",
          "type": "address"
        },
        {
          "internalType": "uint256",
          "name": "tokenReserve",
          "type": "uint256"
        },
        {
          "internalType": "uint256",
          "name": "usdReserve",
          "type": "uint256"
        },
        {
          "internalType": "uint256",
          "name": "createdAt",
          "type": "uint256"
        },
        {
          "internalType": "bool",
          "name": "isActive",
          "type": "bool"
        },
        {
          "internalType": "address",
          "name": "creator",
          "type": "address"
        }
      ],
      "stateMutability": "view",
      "type": "function"
    },
    {
      "inputs": [],
      "name": "renounceOwnership",
      "outputs": [],
      "stateMutability": "nonpayable",
      "type": "function"
    },
    {
      "inputs": [
        {
          "internalType": "address",
          "name": "_ipToken",
          "type": "address"
        },
        {
          "internalType": "uint256",
          "name": "_tokenAmount",
          "type": "uint256"
        }
      ],
      "name": "sellTokens",
      "outputs": [
        {
          "internalType": "uint256",
          "name": "usdReceived",
          "type": "uint256"
        }
      ],
      "stateMutability": "nonpayable",
      "type": "function"
    },
    {
      "inputs": [
        {
          "internalType": "address",
          "name": "",
          "type": "address"
        },
        {
          "internalType": "uint256",
          "name": "",
          "type": "uint256"
        }
      ],
      "name": "transactionHistory",
      "outputs": [
        {
          "internalType": "address",
          "name": "trader",
          "type": "address"
        },
        {
          "internalType": "address",
          "name": "ipToken",
          "type": "address"
        },
        {
          "internalType": "bool",
          "name": "isBuy",
          "type": "bool"
        },
        {
          "internalType": "uint256",
          "name": "tokenAmount",
          "type": "uint256"
        },
        {
          "internalType": "uint256",
          "name": "usdAmount",
          "type": "uint256"
        },
        {
          "internalType": "uint256",
          "name": "feeAmount",
          "type": "uint256"
        },
        {
          "internalType": "uint256",
          "name": "timestamp",
          "type": "uint256"
        }
      ],
      "stateMutability": "view",
      "type": "function"
    },
    {
      "inputs": [
        {
          "internalType": "address",
          "name": "newOwner",
          "type": "address"
        }
      ],
      "name": "transferOwnership",
      "outputs": [],
      "stateMutability": "nonpayable",
      "type": "function"
    }
  ],
  "bytecode": "0x608060405234801561000f575f80fd5b5060405161171338038061171383398101604081905261002e91610109565b610037336100ba565b600180556001600160a01b0381166100955760405162461bcd60e51b815260206004820152601560248201527f496e76616c69642066656520636f6c6c6563746f720000000000000000000000604482015260640160405180910390fd5b600580546001600160a01b0319166001600160a01b0392909216919091179055610136565b5f80546001600160a01b038381166001600160a01b0319831681178455604051919092169283917f8be0079c531659141344cd1fd0a4f28419497f9722a3daafe3b4186f6b6457e09190a35050565b5f60208284031215610119575f80fd5b81516001600160a01b038116811461012f575f80fd5b9392505050565b6115d0806101435f395ff3fe608060405234801561000f575f80fd5b5060043610610105575f3560e01c80639e93ad8e1161009e578063ccac373f1161006e578063ccac373f146102eb578063d7ff0714146102fe578063e3abc2bc14610357578063ef9253991461036a578063f2fde38b1461037d575f80fd5b80639e93ad8e1461022d578063a4063dbc14610236578063c415b95c146102c5578063c464fe65146102d8575f80fd5b806327506f53116100d957806327506f53146101c7578063715018a6146101dc578063884db063146101e65780638da5cb5b14610209575f80fd5b80620b46f81461010957806306bfa938146101245780630752881a1461018c57806323ca0cd21461019f575b5f80fd5b610111601e81565b6040519081526020015b60405180910390f35b6101376101323660046113d4565b610390565b60405161011b919081516001600160a01b03908116825260208084015190830152604080840151908301526060808401519083015260808084015115159083015260a092830151169181019190915260c00190565b61011161019a3660046113f4565b610489565b6101116101ad3660046113d4565b6001600160a01b03165f9081526003602052604090205490565b6101cf6108ac565b60405161011b919061141c565b6101e461095f565b005b6101f96101f43660046114ab565b610972565b604051901515815260200161011b565b5f546001600160a01b03165b6040516001600160a01b03909116815260200161011b565b61011161271081565b6102876102443660046113d4565b600260208190525f9182526040909120805460018201549282015460038301546004909301546001600160a01b039283169493919260ff82169161010090041686565b604080516001600160a01b039788168152602081019690965285019390935260608401919091521515608083015290911660a082015260c00161011b565b600554610215906001600160a01b031681565b6101116102e63660046113f4565b610bce565b6101116102f93660046114ea565b611005565b61031161030c366004611513565b6110b1565b604080516001600160a01b039889168152979096166020880152931515948601949094526060850191909152608084015260a083019190915260c082015260e00161011b565b6103116103653660046113f4565b61110f565b6101cf6103783660046113d4565b611176565b6101e461038b3660046113d4565b61123f565b6040805160c0810182525f8082526020808301829052828401829052606083018290526080830182905260a083018290526001600160a01b038516825260029052919091206004015460ff1661041e5760405162461bcd60e51b815260206004820152600e60248201526d141bdbdb081b9bdd08199bdd5b9960921b60448201526064015b60405180910390fd5b506001600160a01b039081165f90815260026020818152604092839020835160c0810185528154861681526001820154928101929092529182015492810192909252600381015460608301526004015460ff811615156080830152610100900490911660a082015290565b5f6104926112b8565b6001600160a01b0383165f9081526002602052604090206004015460ff166104ee5760405162461bcd60e51b815260206004820152600f60248201526e506f6f6c206e6f742061637469766560881b6044820152606401610415565b5f82116105325760405162461bcd60e51b8152602060048201526012602482015271125b9d985b1a59081554d108185b5bdd5b9d60721b6044820152606401610415565b6001600160a01b0383165f908152600260208190526040909120908101546001820154610560918591611005565b91505f82116105a75760405162461bcd60e51b8152602060048201526013602482015272125b9cdd59999a58da595b9d081bdd5d1c1d5d606a1b6044820152606401610415565b5f6127106105b6601e8661153e565b6105c09190611555565b905083826002015f8282546105d59190611574565b9250508190555082826001015f8282546105ef9190611587565b925050819055505f6040518060e00160405280336001600160a01b03168152602001876001600160a01b0316815260200160011515815260200185815260200186815260200183815260200142815250905060035f336001600160a01b03166001600160a01b031681526020019081526020015f2081908060018154018082558091505060019003905f5260205f2090600602015f909190919091505f820151815f015f6101000a8154816001600160a01b0302191690836001600160a01b031602179055506020820151816001015f6101000a8154816001600160a01b0302191690836001600160a01b0316021790555060408201518160010160146101000a81548160ff021916908315150217905550606082015181600201556080820151816003015560a0820151816004015560c082015181600501555050600481908060018154018082558091505060019003905f5260205f2090600602015f909190919091505f820151815f015f6101000a8154816001600160a01b0302191690836001600160a01b031602179055506020820151816001015f6101000a8154816001600160a01b0302191690836001600160a01b0316021790555060408201518160010160146101000a81548160ff021916908315150217905550606082015181600201556080820151816003015560a0820151816004015560c082015181600501555050856001600160a01b0316336001600160a01b03167f4a179a798aae7b667a57d4131a74ac237388c46efd74875a1fa82f5bc9e4a6d586888660405161084c939291909283526020830191909152604082015260600190565b60405180910390a360408051600181524260208201526001600160a01b0388169133917fa3d5679b09f632fc3e138e78e34ea618cb56c07f0906fad1bea70689bbb2bcc9910160405180910390a35050506108a660018055565b92915050565b60606004805480602002602001604051908101604052809291908181526020015f905b82821015610956575f8481526020908190206040805160e0810182526006860290920180546001600160a01b03908116845260018083015491821685870152600160a01b90910460ff161515928401929092526002810154606084015260038101546080840152600481015460a08401526005015460c083015290835290920191016108cf565b50505050905090565b610967611311565b6109705f61136a565b565b5f61097b611311565b6001600160a01b0385166109c95760405162461bcd60e51b8152602060048201526015602482015274496e76616c696420746f6b656e206164647265737360581b6044820152606401610415565b6001600160a01b038416610a1f5760405162461bcd60e51b815260206004820152601760248201527f496e76616c69642063726561746f7220616464726573730000000000000000006044820152606401610415565b5f83118015610a2d57505f82115b610a6b5760405162461bcd60e51b815260206004820152600f60248201526e496e76616c696420616d6f756e747360881b6044820152606401610415565b6001600160a01b0385165f9081526002602052604090206004015460ff1615610acc5760405162461bcd60e51b8152602060048201526013602482015272506f6f6c20616c72656164792065786973747360681b6044820152606401610415565b6040805160c0810182526001600160a01b03808816808352602080840188815284860188815242606087019081526001608088018181528d881660a08a018181525f8981526002988990528c90209a518b54908b166001600160a01b0319909116178b559551928a01929092559251948801949094555160038701555160049095018054915190941661010002610100600160a81b0319951515959095166001600160a81b0319909116179390931790915591519091907fd569a23a8cff45c641c5d5e4fb55b5e15e918f9acf0fc42b4909adc31f5f806c90610bbb9087908790918252602082015260400190565b60405180910390a3506001949350505050565b5f610bd76112b8565b6001600160a01b0383165f9081526002602052604090206004015460ff16610c335760405162461bcd60e51b815260206004820152600f60248201526e506f6f6c206e6f742061637469766560881b6044820152606401610415565b5f8211610c795760405162461bcd60e51b8152602060048201526014602482015273125b9d985b1a59081d1bdad95b88185b5bdd5b9d60621b6044820152606401610415565b5f60025f856001600160a01b03166001600160a01b031681526020019081526020015f209050610cb28382600101548360020154611005565b91505f8211610cf95760405162461bcd60e51b8152602060048201526013602482015272125b9cdd59999a58da595b9d081bdd5d1c1d5d606a1b6044820152606401610415565b5f612710610d08601e8561153e565b610d129190611555565b90505f610d1f8285611587565b905084836001015f828254610d349190611574565b9250508190555083836002015f828254610d4e9190611587565b925050819055505f6040518060e00160405280336001600160a01b03168152602001886001600160a01b031681526020015f1515815260200187815260200183815260200184815260200142815250905060035f336001600160a01b03166001600160a01b031681526020019081526020015f2081908060018154018082558091505060019003905f5260205f2090600602015f909190919091505f820151815f015f6101000a8154816001600160a01b0302191690836001600160a01b031602179055506020820151816001015f6101000a8154816001600160a01b0302191690836001600160a01b0316021790555060408201518160010160146101000a81548160ff021916908315150217905550606082015181600201556080820151816003015560a0820151816004015560c082015181600501555050600481908060018154018082558091505060019003905f5260205f2090600602015f909190919091505f820151815f015f6101000a8154816001600160a01b0302191690836001600160a01b031602179055506020820151816001015f6101000a8154816001600160a01b0302191690836001600160a01b0316021790555060408201518160010160146101000a81548160ff021916908315150217905550606082015181600201556080820151816003015560a0820151816004015560c082015181600501555050866001600160a01b0316336001600160a01b03167fa0fe9740856690637d999c103293d3c823fc3b81443c34c6004bb582ab4b6166888587604051610faa939291909283526020830191909152604082015260600190565b60405180910390a3604080515f81524260208201526001600160a01b0389169133917fa3d5679b09f632fc3e138e78e34ea618cb56c07f0906fad1bea70689bbb2bcc9910160405180910390a350925050506108a660018055565b5f808411801561101457505f83115b801561101f57505f82115b61105d5760405162461bcd60e51b815260206004820152600f60248201526e496e76616c696420616d6f756e747360881b6044820152606401610415565b5f61271061106c601e82611587565b611076908761153e565b6110809190611555565b90505f61108d848361153e565b90505f61109a8387611574565b90506110a68183611555565b979650505050505050565b600481815481106110c0575f80fd5b5f9182526020909120600690910201805460018201546002830154600384015460048501546005909501546001600160a01b03948516965093831694600160a01b90930460ff16939192909187565b6003602052815f5260405f208181548110611128575f80fd5b5f9182526020909120600690910201805460018201546002830154600384015460048501546005909501546001600160a01b0394851697509383169550600160a01b90920460ff1693909287565b6001600160a01b0381165f908152600360209081526040808320805482518185028101850190935280835260609492939192909184015b82821015611234575f8481526020908190206040805160e0810182526006860290920180546001600160a01b03908116845260018083015491821685870152600160a01b90910460ff161515928401929092526002810154606084015260038101546080840152600481015460a08401526005015460c083015290835290920191016111ad565b505050509050919050565b611247611311565b6001600160a01b0381166112ac5760405162461bcd60e51b815260206004820152602660248201527f4f776e61626c653a206e6577206f776e657220697320746865207a65726f206160448201526564647265737360d01b6064820152608401610415565b6112b58161136a565b50565b60026001540361130a5760405162461bcd60e51b815260206004820152601f60248201527f5265656e7472616e637947756172643a207265656e7472616e742063616c6c006044820152606401610415565b6002600155565b5f546001600160a01b031633146109705760405162461bcd60e51b815260206004820181905260248201527f4f776e61626c653a2063616c6c6572206973206e6f7420746865206f776e65726044820152606401610415565b5f80546001600160a01b038381166001600160a01b0319831681178455604051919092169283917f8be0079c531659141344cd1fd0a4f28419497f9722a3daafe3b4186f6b6457e09190a35050565b80356001600160a01b03811681146113cf575f80fd5b919050565b5f602082840312156113e4575f80fd5b6113ed826113b9565b9392505050565b5f8060408385031215611405575f80fd5b61140e836113b9565b946020939093013593505050565b602080825282518282018190525f919060409081850190868401855b8281101561149e57815180516001600160a01b03908116865287820151168786015285810151151586860152606080820151908601526080808201519086015260a0808201519086015260c0908101519085015260e09093019290850190600101611438565b5091979650505050505050565b5f805f80608085870312156114be575f80fd5b6114c7856113b9565b93506114d5602086016113b9565b93969395505050506040820135916060013590565b5f805f606084860312156114fc575f80fd5b505081359360208301359350604090920135919050565b5f60208284031215611523575f80fd5b5035919050565b634e487b7160e01b5f52601160045260245ffd5b80820281158282048414176108a6576108a661152a565b5f8261156f57634e487b7160e01b5f52601260045260245ffd5b500490565b808201808211156108a6576108a661152a565b818103818111156108a6576108a661152a56fea2646970667358221220b6a8120ae5b9b19621adc8348cb7e9e35f16ac53a63e78eb24797d7800ba744864736f6c63430008140033",
  "linkReferences": {},
  "deployedLinkReferences": {},
  "immutableReferences": {},
  "inputSourceName": "project/contracts/IPMarketplace.sol",
  "buildInfoId": "solc-0_8_20-7dd0871ed35deae00212f679f4ac8faa32f1e291"
}